{
  "contractName": "myWallet",
  "abi": [
    {
      "anonymous": false,
      "inputs": [],
      "name": "someoneAddedSomeoneToTheSenderList",
      "type": "event"
    },
    {
      "constant": false,
      "inputs": [
        {
          "name": "permitted",
          "type": "address"
        },
        {
          "name": "maxTransferAmount",
          "type": "uint256"
        }
      ],
      "name": "addAddressToSenderLists",
      "outputs": [],
      "payable": false,
      "stateMutability": "nonpayable",
      "type": "function"
    },
    {
      "constant": false,
      "inputs": [
        {
          "name": "receiver",
          "type": "address"
        },
        {
          "name": "amountInWei",
          "type": "uint256"
        }
      ],
      "name": "sendFunds",
      "outputs": [],
      "payable": false,
      "stateMutability": "nonpayable",
      "type": "function"
    },
    {
      "constant": false,
      "inputs": [
        {
          "name": "theAddress",
          "type": "address"
        }
      ],
      "name": "removeAddressFromSendersList",
      "outputs": [],
      "payable": false,
      "stateMutability": "nonpayable",
      "type": "function"
    },
    {
      "constant": true,
      "inputs": [],
      "name": "getMyContractBalance",
      "outputs": [
        {
          "name": "",
          "type": "uint256"
        }
      ],
      "payable": false,
      "stateMutability": "view",
      "type": "function"
    },
    {
      "constant": false,
      "inputs": [],
      "name": "addMoneyInYourSmartContract",
      "outputs": [],
      "payable": true,
      "stateMutability": "payable",
      "type": "function"
    }
  ],
  "bytecode": "0x6080604052336000806101000a81548173ffffffffffffffffffffffffffffffffffffffff021916908373ffffffffffffffffffffffffffffffffffffffff16021790555034801561005057600080fd5b506104b8806100606000396000f30060806040526004361061006d576000357c0100000000000000000000000000000000000000000000000000000000900463ffffffff168063509ad5e4146100725780636f64234e146100b557806393722d32146101025780639bbc888a1461010c578063a74ec67a14610137575b600080fd5b34801561007e57600080fd5b506100b3600480360381019080803573ffffffffffffffffffffffffffffffffffffffff169060200190929190505050610184565b005b3480156100c157600080fd5b50610100600480360381019080803573ffffffffffffffffffffffffffffffffffffffff16906020019092919080359060200190929190505050610244565b005b61010a61037f565b005b34801561011857600080fd5b50610121610381565b6040518082815260200191505060405180910390f35b34801561014357600080fd5b50610182600480360381019080803573ffffffffffffffffffffffffffffffffffffffff169060200190929190803590602001909291905050506103a5565b005b3373ffffffffffffffffffffffffffffffffffffffff166000809054906101000a900473ffffffffffffffffffffffffffffffffffffffff1673ffffffffffffffffffffffffffffffffffffffff16141561023c57600160008273ffffffffffffffffffffffffffffffffffffffff1673ffffffffffffffffffffffffffffffffffffffff168152602001908152602001600020600080820160006101000a81549060ff021916905560018201600090555050610241565b600080fd5b50565b3373ffffffffffffffffffffffffffffffffffffffff166000809054906101000a900473ffffffffffffffffffffffffffffffffffffffff1673ffffffffffffffffffffffffffffffffffffffff16141561037657600160003373ffffffffffffffffffffffffffffffffffffffff1673ffffffffffffffffffffffffffffffffffffffff16815260200190815260200160002060000160009054906101000a900460ff16156103715780600160003373ffffffffffffffffffffffffffffffffffffffff1673ffffffffffffffffffffffffffffffffffffffff16815260200190815260200160002060010154101515610370578173ffffffffffffffffffffffffffffffffffffffff166108fc829081150290604051600060405180830381858888f19350505050505b5b61037b565b600080fd5b5050565b565b6000803090508073ffffffffffffffffffffffffffffffffffffffff163191505090565b3373ffffffffffffffffffffffffffffffffffffffff166000809054906101000a900473ffffffffffffffffffffffffffffffffffffffff1673ffffffffffffffffffffffffffffffffffffffff16141561048357604080519081016040528060011515815260200182815250600160008473ffffffffffffffffffffffffffffffffffffffff1673ffffffffffffffffffffffffffffffffffffffff16815260200190815260200160002060008201518160000160006101000a81548160ff02191690831515021790555060208201518160010155905050610488565b600080fd5b50505600a165627a7a72305820de99b643667f6eb070223b63b7f4cfa0641bb8e82ee9b69fefad1c9fb1c8bed00029",
  "source": "pragma solidity ^0.4.24;\r\n\r\ncontract myWallet {\r\n    \r\n    address owner = msg.sender;\r\n    \r\n    //use the modifier to call onlyOwner as a msg.sender\r\n    modifier onlyOwner () {\r\n        if(owner == msg.sender){\r\n            _;\r\n        } else {\r\n            throw;\r\n        }\r\n    }\r\n    \r\n    //mapping the address to the permission struct which is declared later on below\r\n    mapping(address => Permission) permittedAddress;\r\n    \r\n    event someoneAddedSomeoneToTheSenderList();\r\n    \r\n    struct Permission{\r\n        bool isAllowed;\r\n        uint maxTransferAmount;\r\n    }\r\n    \r\n    function addAddressToSenderLists(address permitted, uint maxTransferAmount) onlyOwner{\r\n        permittedAddress[permitted] = Permission(true, maxTransferAmount);\r\n    }\r\n    \r\n    //if the owner is allowed and he has less eth to send than the maxTransferAmount\r\n    function sendFunds (address receiver, uint amountInWei) onlyOwner{\r\n        if(permittedAddress[msg.sender].isAllowed) {\r\n            if(permittedAddress[msg.sender].maxTransferAmount >= amountInWei) {\r\n                receiver.send(amountInWei);\r\n            }\r\n        }\r\n    }\r\n    \r\n    //delete the address from senders list\r\n    function removeAddressFromSendersList(address theAddress) onlyOwner{\r\n        delete permittedAddress[theAddress];\r\n    }\r\n    \r\n            //return the contract balance\r\n    function getMyContractBalance () constant returns (uint) {\r\n        address myAddress = this;\r\n        return myAddress.balance;\r\n    }\r\n    \r\n    function addMoneyInYourSmartContract() payable {\r\n    }\r\n}",
  "sourcePath": "C:\\Projects\\wallet\\project\\myWallet-truffle\\contracts\\myWallet.sol",
  "compiler": {
    "name": "solc",
    "version": "0.4.24+commit.e67f0147.Emscripten.clang"
  },
  "schemaVersion": "2.0.1",
  "updatedAt": "2018-07-24T09:01:15.365Z"
}